:100000000C942A000C943F000C943F000C943F0089
:100010000C943F000C943F000C943F000C943F0064
:100020000C943F000C943F000C943F000C943F0054
:100030000C943F000C943F000C943F000C943F0044
:100040000C943F000C943F000C943F000C943F0034
:100050000C943F0011241FBECFE5D8E0DEBFCDBF1A
:1000600010E0A0E6B0E0E2E2F8E002C005900D92F8
:10007000AA3DB107D9F70E942A030C940F040C94EF
:100080000000982F9770869586958695813021F18E
:1000900030F08230F1F1833009F458C008956130B6
:1000A00069F44BB321E030E0B90102C0660F771F5D
:1000B0009A95E2F7CB01842B8BBB08954BB321E0DB
:1000C00030E0B90102C0660F771F9A95E2F7CB01C5
:1000D000809584238BBB0895613069F448B321E097
:1000E00030E0B90102C0660F771F9A95E2F7CB01A5
:1000F000842B88BB089548B321E030E0B90102C0E9
:10010000660F771F9A95E2F7CB018095842388BB11
:100110000895613069F445B321E030E0B90102C0CF
:10012000660F771F9A95E2F7CB01842B85BB089564
:1001300045B321E030E0B90102C0660F771F9A9500
:10014000E2F7CB018095842385BB0895613069F483
:1001500042B321E030E0B90102C0660F771F9A95E3
:10016000E2F7CB01842B82BB089542B321E030E05B
:10017000B90102C0660F771F9A95E2F7CB0180950F
:10018000842382BB0895282F2770869586958695AF
:10019000813079F028F08230A9F08330E1F024C07A
:1001A00089B390E002C0959587952A95E2F7817012
:1001B000089586B390E002C0959587952A95E2F759
:1001C0008170089583B390E002C0959587952A9534
:1001D000E2F78170089580B390E002C0959587950D
:1001E0002A95E2F78170089580E00895CF93DF9318
:1001F000E2E7F0E020E030E061E070E0422F47709D
:10020000C90196958795969587959695879599278F
:1002100081309105E9F140F08230910509F46CC01C
:10022000039709F49DC0CFC0EF01808181110BC0FD
:100230005AB3CB01042E02C0880F991F0A94E2F72B
:10024000852B8ABB0CC09AB3DB01042E02C0AA0F17
:10025000BB1F0A94E2F78A2F809589238ABB898184
:10026000813051F45BB3CB0102C0880F991F4A95CE
:10027000E2F7852B8BBBA7C09BB3DB0102C0AA0FA3
:10028000BB1F4A95E2F78A2F809589238BBB9BC0C1
:10029000EF01808181110BC057B3CB01042E02C046
:1002A000880F991F0A94E2F7852B87BB0CC097B380
:1002B000DB01042E02C0AA0FBB1F0A94E2F78A2FAB
:1002C0008095892387BB8981813051F458B3CB0154
:1002D00002C0880F991F4A95E2F7852B88BB73C02F
:1002E00098B3DB0102C0AA0FBB1F4A95E2F78A2F21
:1002F0008095892388BB67C0EF01808181110BC085
:1003000054B3CB01042E02C0880F991F0A94E2F760
:10031000852B84BB0CC094B3DB01042E02C0AA0F52
:10032000BB1F0A94E2F78A2F8095892384BB8981B9
:10033000813051F455B3CB0102C0880F991F4A9503
:10034000E2F7852B85BB3FC095B3DB0102C0AA0F46
:10035000BB1F4A95E2F78A2F8095892385BB33C05E
:10036000EF01808181110BC051B3CB01042E02C07B
:10037000880F991F0A94E2F7852B81BB0CC091B3BB
:10038000DB01042E02C0AA0FBB1F0A94E2F78A2FDA
:100390008095892381BB8981813051F452B3CB018F
:1003A00002C0880F991F4A95E2F7852B82BB0BC0CC
:1003B00092B3DB0102C0AA0FBB1F4A95E2F78A2F56
:1003C0008095892382BB2F5F3F4F329620323105C3
:1003D00009F014CFDF91CF910895CF93C82F83E117
:1003E0000E94C30081110AC08C2F90E0880F991FD2
:1003F000880F991F909361008093600084E10E94B0
:10040000C30081110BC08C2F90E0880F991F880FBB
:10041000991F0196909361008093600085E10E948E
:10042000C30081110BC08C2F90E0880F991F880F9B
:10043000991F0296909361008093600086E10E946C
:10044000C30081110BC08C2F90E0880F991F880F7B
:10045000991F03969093610080936000CF91089557
:1004600060E08DE00E94410061E08EE00E9441006A
:1004700061E08FE00E94410061E080E00E94410065
:1004800080E00E94ED0161E08DE00E94410060E0AB
:100490008EE00E94410061E08FE00E94410061E037
:1004A00080E00E94410081E00E94ED0161E08DE06A
:1004B0000E94410061E08EE00E94410060E08FE018
:1004C0000E94410061E080E00E94410082E00E94C1
:1004D000ED0161E08DE00E94410061E08EE00E944C
:1004E000410061E08FE00E94410060E080E00E94F6
:1004F000410083E00E94ED018091600090916100D5
:100500008F3F910529F0FC01EE59FF4F808108953E
:100510008FEF08959BB39F70282F207F922B9BBB5A
:10052000C198C39A2FEF39EF90E0215030409040AE
:10053000E1F700C00000C3982FEF39EF90E02150A1
:1005400030409040E1F700C000002BB32F7030E145
:10055000839FC0011124822B8BBBC39A8FEF90E73E
:1005600022E0815090402040E1F700C00000C39895
:100570003FEF89EF90E0315080409040E1F700C0BC
:10058000000008952FEF89EF90E0215080409040C7
:10059000E1F700C0000083E30E948A0282E30E9428
:1005A0008A0288E20E948A028CE00E948A0286E027
:1005B0000E948A0281E00E948A02C29808959BB339
:1005C0009F70282F207F922B9BBBC19AC39A2FEF3D
:1005D00039EF90E0215030409040E1F700C000003A
:1005E000C3982FEF39EF90E0215030409040E1F771
:1005F00000C000002BB32F7030E1839FC001112495
:10060000822B8BBBC39A8FEF90E722E08150904002
:100610002040E1F700C00000C3983FEF89EF90E071
:10062000315080409040E1F700C000000895CF9322
:10063000DF93EC018881882331F021960E94DF024C
:1006400089918111FBCFDF91CF91089581E00E94C4
:100650008A0208950E94F6000E94C20282EB90E096
:100660000E9417030E943002813369F42FEF89EF53
:1006700090E0215080409040E1F700C000008BECFA
:1006800090E00E9417030E9430028233E1F42FEFC2
:1006900089EF90E0215080409040E1F700C00000D9
:1006A0000E94260361E087E10E94410086ED90E010
:1006B0000E9417032FEF80E792E021508040904086
:1006C000E1F700C000000E9430028F34E1F42FEF08
:1006D00089EF90E0215080409040E1F700C0000099
:1006E0000E94260361E082E10E9441002FEF80E733
:1006F00092E0215080409040E1F700C0000060E0AF
:1007000082E10E94410088E00E94C300813049F5E7
:100710002FEF89EF90E0215080409040E1F700C03A
:10072000000061E082E10E9441002FEF81EE94E041
:10073000215080409040E1F700C0000060E082E17D
:100740000E9441002FEF81EE94E0215080409040C4
:10075000E1F700C000000E94260388EB90E00E94B1
:1007600017038CE00E94C300813049F52FEF89EF19
:1007700090E0215080409040E1F700C0000061E02F
:1007800087E10E9441002FEF81EE94E021508040EC
:100790009040E1F700C0000060E087E10E94410066
:1007A0002FEF81EE94E0215080409040E1F700C0AF
:1007B00000000E94260384EC90E00E9417038AE167
:1007C0000E94C300813009F04DCF2FEF89EF90E0F8
:1007D000215080409040E1F700C0000061E08BE1D3
:1007E0000E9441002FEF81EE94E021508040904024
:1007F000E1F700C0000060E08BE10E9441002FEFB4
:1008000081EE94E0215080409040E1F700C000006C
:100810000E9426038FEC90E00E94170323CFF894E8
:02082000FFCF08
:10082200FF003738392534353658313233434F30AB
:100832003D2B00000000000000000000000000004E
:1008420000000100000000000000010000000000A4
:10085200000000000000000001010101010101018E
:100862000000000000000100000000000000000085
:100872000000537461727400427574746F6E205A72
:1008820065726F00427574746F6E204F6E65004220
:0A0892007574746F6E2054776F00C8
:00000001FF
